{
  "abi": [
    {
      "inputs": [
        {
          "internalType": "address",
          "name": "_tokenX_contract",
          "type": "address"
        },
        {
          "internalType": "address",
          "name": "_tokenY_contract",
          "type": "address"
        }
      ],
      "stateMutability": "nonpayable",
      "type": "constructor"
    },
    {
      "anonymous": false,
      "inputs": [
        {
          "indexed": true,
          "internalType": "address",
          "name": "owner",
          "type": "address"
        },
        {
          "indexed": true,
          "internalType": "address",
          "name": "spender",
          "type": "address"
        },
        {
          "indexed": false,
          "internalType": "uint256",
          "name": "value",
          "type": "uint256"
        }
      ],
      "name": "Approval",
      "type": "event"
    },
    {
      "anonymous": false,
      "inputs": [
        {
          "indexed": true,
          "internalType": "address",
          "name": "from",
          "type": "address"
        },
        {
          "indexed": true,
          "internalType": "address",
          "name": "to",
          "type": "address"
        },
        {
          "indexed": false,
          "internalType": "uint256",
          "name": "value",
          "type": "uint256"
        }
      ],
      "name": "Transfer",
      "type": "event"
    },
    {
      "inputs": [
        {
          "internalType": "uint256",
          "name": "tokenXAmount",
          "type": "uint256"
        },
        {
          "internalType": "uint256",
          "name": "tokenYAmount",
          "type": "uint256"
        },
        {
          "internalType": "uint256",
          "name": "minimumLPTokenAmount",
          "type": "uint256"
        }
      ],
      "name": "addLiquidity",
      "outputs": [
        {
          "internalType": "uint256",
          "name": "LPTokenAmount",
          "type": "uint256"
        }
      ],
      "stateMutability": "nonpayable",
      "type": "function"
    },
    {
      "inputs": [
        {
          "internalType": "address",
          "name": "owner",
          "type": "address"
        },
        {
          "internalType": "address",
          "name": "spender",
          "type": "address"
        }
      ],
      "name": "allowance",
      "outputs": [
        {
          "internalType": "uint256",
          "name": "",
          "type": "uint256"
        }
      ],
      "stateMutability": "view",
      "type": "function"
    },
    {
      "inputs": [
        {
          "internalType": "address",
          "name": "spender",
          "type": "address"
        },
        {
          "internalType": "uint256",
          "name": "amount",
          "type": "uint256"
        }
      ],
      "name": "approve",
      "outputs": [
        {
          "internalType": "bool",
          "name": "",
          "type": "bool"
        }
      ],
      "stateMutability": "nonpayable",
      "type": "function"
    },
    {
      "inputs": [
        {
          "internalType": "address",
          "name": "account",
          "type": "address"
        }
      ],
      "name": "balanceOf",
      "outputs": [
        {
          "internalType": "uint256",
          "name": "",
          "type": "uint256"
        }
      ],
      "stateMutability": "view",
      "type": "function"
    },
    {
      "inputs": [],
      "name": "decimals",
      "outputs": [
        {
          "internalType": "uint8",
          "name": "",
          "type": "uint8"
        }
      ],
      "stateMutability": "view",
      "type": "function"
    },
    {
      "inputs": [
        {
          "internalType": "address",
          "name": "spender",
          "type": "address"
        },
        {
          "internalType": "uint256",
          "name": "subtractedValue",
          "type": "uint256"
        }
      ],
      "name": "decreaseAllowance",
      "outputs": [
        {
          "internalType": "bool",
          "name": "",
          "type": "bool"
        }
      ],
      "stateMutability": "nonpayable",
      "type": "function"
    },
    {
      "inputs": [
        {
          "internalType": "address",
          "name": "spender",
          "type": "address"
        },
        {
          "internalType": "uint256",
          "name": "addedValue",
          "type": "uint256"
        }
      ],
      "name": "increaseAllowance",
      "outputs": [
        {
          "internalType": "bool",
          "name": "",
          "type": "bool"
        }
      ],
      "stateMutability": "nonpayable",
      "type": "function"
    },
    {
      "inputs": [],
      "name": "name",
      "outputs": [
        {
          "internalType": "string",
          "name": "",
          "type": "string"
        }
      ],
      "stateMutability": "view",
      "type": "function"
    },
    {
      "inputs": [
        {
          "internalType": "uint256",
          "name": "LPTokenAmount",
          "type": "uint256"
        },
        {
          "internalType": "uint256",
          "name": "minimumTokenXAmount",
          "type": "uint256"
        },
        {
          "internalType": "uint256",
          "name": "minimumTokenYAmount",
          "type": "uint256"
        }
      ],
      "name": "removeLiquidity",
      "outputs": [
        {
          "internalType": "uint256",
          "name": "",
          "type": "uint256"
        },
        {
          "internalType": "uint256",
          "name": "",
          "type": "uint256"
        }
      ],
      "stateMutability": "nonpayable",
      "type": "function"
    },
    {
      "inputs": [
        {
          "internalType": "uint256",
          "name": "tokenXAmount",
          "type": "uint256"
        },
        {
          "internalType": "uint256",
          "name": "tokenYAmount",
          "type": "uint256"
        },
        {
          "internalType": "uint256",
          "name": "minimumSwapAmount",
          "type": "uint256"
        }
      ],
      "name": "swap",
      "outputs": [
        {
          "internalType": "uint256",
          "name": "amount",
          "type": "uint256"
        }
      ],
      "stateMutability": "nonpayable",
      "type": "function"
    },
    {
      "inputs": [],
      "name": "symbol",
      "outputs": [
        {
          "internalType": "string",
          "name": "",
          "type": "string"
        }
      ],
      "stateMutability": "view",
      "type": "function"
    },
    {
      "inputs": [],
      "name": "totalSupply",
      "outputs": [
        {
          "internalType": "uint256",
          "name": "",
          "type": "uint256"
        }
      ],
      "stateMutability": "view",
      "type": "function"
    },
    {
      "inputs": [
        {
          "internalType": "address",
          "name": "to",
          "type": "address"
        },
        {
          "internalType": "uint256",
          "name": "lpAmount",
          "type": "uint256"
        }
      ],
      "name": "transfer",
      "outputs": [
        {
          "internalType": "bool",
          "name": "",
          "type": "bool"
        }
      ],
      "stateMutability": "nonpayable",
      "type": "function"
    },
    {
      "inputs": [
        {
          "internalType": "address",
          "name": "from",
          "type": "address"
        },
        {
          "internalType": "address",
          "name": "to",
          "type": "address"
        },
        {
          "internalType": "uint256",
          "name": "amount",
          "type": "uint256"
        }
      ],
      "name": "transferFrom",
      "outputs": [
        {
          "internalType": "bool",
          "name": "",
          "type": "bool"
        }
      ],
      "stateMutability": "nonpayable",
      "type": "function"
    }
  ],
  "bytecode": {
    "object": "0x60806040523480156200001157600080fd5b5060405162001973380380620019738339810160408190526200003491620000ff565b6040518060400160405280600781526020016626282a37b5b2b760c91b8152506040518060400160405280600381526020016213141560ea1b8152508160039081620000819190620001dc565b506004620000908282620001dc565b5050600580546001600160a01b039485166001600160a01b031991821617909155600680549390941692169190911790915550600a805460ff19166001179055670de0b6b3a7640000600d55620002a8565b80516001600160a01b0381168114620000fa57600080fd5b919050565b600080604083850312156200011357600080fd5b6200011e83620000e2565b91506200012e60208401620000e2565b90509250929050565b634e487b7160e01b600052604160045260246000fd5b600181811c908216806200016257607f821691505b6020821081036200018357634e487b7160e01b600052602260045260246000fd5b50919050565b601f821115620001d757600081815260208120601f850160051c81016020861015620001b25750805b601f850160051c820191505b81811015620001d357828155600101620001be565b5050505b505050565b81516001600160401b03811115620001f857620001f862000137565b62000210816200020984546200014d565b8462000189565b602080601f8311600181146200024857600084156200022f5750858301515b600019600386901b1c1916600185901b178555620001d3565b600085815260208120601f198616915b82811015620002795788860151825594840194600190910190840162000258565b5085821015620002985787850151600019600388901b60f8161c191681555b5050505050600190811b01905550565b6116bb80620002b86000396000f3fe608060405234801561001057600080fd5b50600436106100ea5760003560e01c806370a082311161008c5780639d9892cd116100665780639d9892cd146101e3578063a457c2d7146101f6578063a9059cbb14610209578063dd62ed3e1461021f57600080fd5b806370a082311461018a578063857620e1146101b357806395d89b41146101db57600080fd5b806323b872dd116100c857806323b872dd14610142578063313ce567146101555780633950935114610164578063422f10431461017757600080fd5b806306fdde03146100ef578063095ea7b31461010d57806318160ddd14610130575b600080fd5b6100f7610232565b6040516101049190611390565b60405180910390f35b61012061011b3660046113fa565b6102c4565b6040519015158152602001610104565b6002545b604051908152602001610104565b610120610150366004611424565b6102de565b60405160128152602001610104565b6101206101723660046113fa565b610304565b610134610185366004611460565b610326565b61013461019836600461148c565b6001600160a01b031660009081526020819052604090205490565b6101c66101c1366004611460565b61099b565b60408051928352602083019190915201610104565b6100f7610ca9565b6101346101f1366004611460565b610cb8565b6101206102043660046113fa565b610e0c565b6101206102173660046113fa565b600092915050565b61013461022d3660046114a7565b610e92565b606060038054610241906114da565b80601f016020809104026020016040519081016040528092919081815260200182805461026d906114da565b80156102ba5780601f1061028f576101008083540402835291602001916102ba565b820191906000526020600020905b81548152906001019060200180831161029d57829003601f168201915b5050505050905090565b6000336102d2818585610ebd565b60019150505b92915050565b6000336102ec858285610fe2565b6102f785858561102c565b60019150505b9392505050565b6000336102d28185856103178383610e92565b610321919061152a565b610ebd565b6000831580159061033657508215155b6103a35760405162461bcd60e51b815260206004820152603360248201527f4164644c697175696469747920696e76616c696420696e697469616c697a6174604482015272696f6e20636865636b206572726f72202d203160681b60648201526084015b60405180910390fd5b8360000361040f5760405162461bcd60e51b815260206004820152603360248201527f4164644c697175696469747920696e76616c696420696e697469616c697a617460448201527234b7b71031b432b1b59032b93937b91016901960691b606482015260840161039a565b8260000361047b5760405162461bcd60e51b815260206004820152603360248201527f4164644c697175696469747920696e76616c696420696e697469616c697a6174604482015272696f6e20636865636b206572726f72202d203360681b606482015260840161039a565b600554604051636eb1769f60e11b815233600482015230602482015285916001600160a01b03169063dd62ed3e90604401602060405180830381865afa1580156104c9573d6000803e3d6000fd5b505050506040513d601f19601f820116820180604052508101906104ed919061153d565b101561050b5760405162461bcd60e51b815260040161039a90611556565b600654604051636eb1769f60e11b815233600482015230602482015284916001600160a01b03169063dd62ed3e90604401602060405180830381865afa158015610559573d6000803e3d6000fd5b505050506040513d601f19601f8201168201806040525081019061057d919061153d565b101561059b5760405162461bcd60e51b815260040161039a90611556565b6005546040516370a0823160e01b815233600482015285916001600160a01b0316906370a0823190602401602060405180830381865afa1580156105e3573d6000803e3d6000fd5b505050506040513d601f19601f82011682018060405250810190610607919061153d565b10156106255760405162461bcd60e51b815260040161039a9061158d565b6006546040516370a0823160e01b815233600482015284916001600160a01b0316906370a0823190602401602060405180830381865afa15801561066d573d6000803e3d6000fd5b505050506040513d601f19601f82011682018060405250810190610691919061153d565b10156106af5760405162461bcd60e51b815260040161039a9061158d565b6005546040516370a0823160e01b81523060048201526001600160a01b03909116906370a0823190602401602060405180830381865afa1580156106f7573d6000803e3d6000fd5b505050506040513d601f19601f8201168201806040525081019061071b919061153d565b6007556006546040516370a0823160e01b81523060048201526001600160a01b03909116906370a0823190602401602060405180830381865afa158015610766573d6000803e3d6000fd5b505050506040513d601f19601f8201168201806040525081019061078a919061153d565b600855600a5460ff166107dc576107d5600754856009546107ab91906115d3565b6107b591906115ea565b600854856009546107c691906115d3565b6107d091906115ea565b611191565b90506107fc565b600d546008546007546107ef91906115d3565b6107f991906115ea565b90505b818110156108585760405162461bcd60e51b8152602060048201526024808201527f4164644c6971756964697479206d696e696d756d204c502072657475726e2065604482015263393937b960e11b606482015260840161039a565b836007600082825461086a919061152a565b925050819055508260086000828254610883919061152a565b90915550506005546040516323b872dd60e01b8152336004820152306024820152604481018690526001600160a01b03909116906323b872dd906064016020604051808303816000875af11580156108df573d6000803e3d6000fd5b505050506040513d601f19601f82011682018060405250810190610903919061160c565b506006546040516323b872dd60e01b8152336004820152306024820152604481018590526001600160a01b03909116906323b872dd906064016020604051808303816000875af115801561095b573d6000803e3d6000fd5b505050506040513d601f19601f8201168201806040525081019061097f919061160c565b5061098a33826111a7565b600a805460ff191690559392505050565b336000908152602081905260408120548190851115610a105760405162461bcd60e51b815260206004820152602b60248201527f52656d6f76654c697175696469747920657863656564732062616c616e63652060448201526a31b432b1b59032b93937b960a91b606482015260840161039a565b6005546040516370a0823160e01b81523060048201526001600160a01b03909116906370a0823190602401602060405180830381865afa158015610a58573d6000803e3d6000fd5b505050506040513d601f19601f82011682018060405250810190610a7c919061153d565b6007556006546040516370a0823160e01b81523060048201526001600160a01b03909116906370a0823190602401602060405180830381865afa158015610ac7573d6000803e3d6000fd5b505050506040513d601f19601f82011682018060405250810190610aeb919061153d565b6008556000610af960025490565b600754610b0690886115d3565b610b1091906115ea565b90506000610b1d60025490565b600854610b2a90896115d3565b610b3491906115ea565b905085821015610b565760405162461bcd60e51b815260040161039a9061162e565b84811015610b765760405162461bcd60e51b815260040161039a9061162e565b8160076000828254610b889190611672565b925050819055508060086000828254610ba19190611672565b90915550610bb190503388611266565b60055460405163a9059cbb60e01b8152336004820152602481018490526001600160a01b039091169063a9059cbb906044016020604051808303816000875af1158015610c02573d6000803e3d6000fd5b505050506040513d601f19601f82011682018060405250810190610c26919061160c565b5060065460405163a9059cbb60e01b8152336004820152602481018390526001600160a01b039091169063a9059cbb906044016020604051808303816000875af1158015610c78573d6000803e3d6000fd5b505050506040513d601f19601f82011682018060405250810190610c9c919061160c565b5090969095509350505050565b606060048054610241906114da565b600083151580610cc757508215155b610d135760405162461bcd60e51b815260206004820152601960248201527f7468657265206973206e6f20746f6b656e20746f207377617000000000000000604482015260640161039a565b831580610d1e575082155b610d6a5760405162461bcd60e51b815260206004820152601c60248201527f6f6e6c79207377617020666f72206f6e6520746f6b656e207479706500000000604482015260640161039a565b8315610dac5783600754610d7e919061152a565b600854600754610d8e91906115d3565b610d9891906115ea565b600854610da59190611672565b9050610de4565b82600854610dba919061152a565b600754600854610dca91906115d3565b610dd491906115ea565b600754610de19190611672565b90505b6103e8610df3826103e76115d3565b610dfd91906115ea565b9050818110156102fd57600080fd5b60003381610e1a8286610e92565b905083811015610e7a5760405162461bcd60e51b815260206004820152602560248201527f45524332303a2064656372656173656420616c6c6f77616e63652062656c6f77604482015264207a65726f60d81b606482015260840161039a565b610e878286868403610ebd565b506001949350505050565b6001600160a01b03918216600090815260016020908152604080832093909416825291909152205490565b6001600160a01b038316610f1f5760405162461bcd60e51b8152602060048201526024808201527f45524332303a20617070726f76652066726f6d20746865207a65726f206164646044820152637265737360e01b606482015260840161039a565b6001600160a01b038216610f805760405162461bcd60e51b815260206004820152602260248201527f45524332303a20617070726f766520746f20746865207a65726f206164647265604482015261737360f01b606482015260840161039a565b6001600160a01b0383811660008181526001602090815260408083209487168084529482529182902085905590518481527f8c5be1e5ebec7d5bd14f71427d1e84f3dd0314c0f7b2291e5b200ac8c7c3b92591015b60405180910390a3505050565b6000610fee8484610e92565b9050600019811461102657818110156110195760405162461bcd60e51b815260040161039a90611556565b6110268484848403610ebd565b50505050565b6001600160a01b0383166110905760405162461bcd60e51b815260206004820152602560248201527f45524332303a207472616e736665722066726f6d20746865207a65726f206164604482015264647265737360d81b606482015260840161039a565b6001600160a01b0382166110f25760405162461bcd60e51b815260206004820152602360248201527f45524332303a207472616e7366657220746f20746865207a65726f206164647260448201526265737360e81b606482015260840161039a565b6001600160a01b0383166000908152602081905260409020548181101561112b5760405162461bcd60e51b815260040161039a9061158d565b6001600160a01b03848116600081815260208181526040808320878703905593871680835291849020805487019055925185815290927fddf252ad1be2c89b69c2b068fc378daa952ba7f163c4a11628f55a4df523b3ef910160405180910390a3611026565b60008183106111a057816102fd565b5090919050565b6001600160a01b0382166111fd5760405162461bcd60e51b815260206004820152601f60248201527f45524332303a206d696e7420746f20746865207a65726f206164647265737300604482015260640161039a565b806002600082825461120f919061152a565b90915550506001600160a01b038216600081815260208181526040808320805486019055518481527fddf252ad1be2c89b69c2b068fc378daa952ba7f163c4a11628f55a4df523b3ef910160405180910390a35050565b6001600160a01b0382166112c65760405162461bcd60e51b815260206004820152602160248201527f45524332303a206275726e2066726f6d20746865207a65726f206164647265736044820152607360f81b606482015260840161039a565b6001600160a01b0382166000908152602081905260409020548181101561133a5760405162461bcd60e51b815260206004820152602260248201527f45524332303a206275726e20616d6f756e7420657863656564732062616c616e604482015261636560f01b606482015260840161039a565b6001600160a01b0383166000818152602081815260408083208686039055600280548790039055518581529192917fddf252ad1be2c89b69c2b068fc378daa952ba7f163c4a11628f55a4df523b3ef9101610fd5565b600060208083528351808285015260005b818110156113bd578581018301518582016040015282016113a1565b506000604082860101526040601f19601f8301168501019250505092915050565b80356001600160a01b03811681146113f557600080fd5b919050565b6000806040838503121561140d57600080fd5b611416836113de565b946020939093013593505050565b60008060006060848603121561143957600080fd5b611442846113de565b9250611450602085016113de565b9150604084013590509250925092565b60008060006060848603121561147557600080fd5b505081359360208301359350604090920135919050565b60006020828403121561149e57600080fd5b6102fd826113de565b600080604083850312156114ba57600080fd5b6114c3836113de565b91506114d1602084016113de565b90509250929050565b600181811c908216806114ee57607f821691505b60208210810361150e57634e487b7160e01b600052602260045260246000fd5b50919050565b634e487b7160e01b600052601160045260246000fd5b808201808211156102d8576102d8611514565b60006020828403121561154f57600080fd5b5051919050565b6020808252601d908201527f45524332303a20696e73756666696369656e7420616c6c6f77616e6365000000604082015260600190565b60208082526026908201527f45524332303a207472616e7366657220616d6f756e7420657863656564732062604082015265616c616e636560d01b606082015260800190565b80820281158282048414176102d8576102d8611514565b60008261160757634e487b7160e01b600052601260045260246000fd5b500490565b60006020828403121561161e57600080fd5b815180151581146102fd57600080fd5b60208082526024908201527f52656d6f76654c6971756964697479206d696e696d756d2072657475726e2065604082015263393937b960e11b606082015260800190565b818103818111156102d8576102d861151456fea2646970667358221220ed9010029be662b66c329d4a5562327eae71e154d7d83f8370885b60b57c484664736f6c63430008130033",
    "linkReferences": {}
  },
  "methodIdentifiers": {
    "addLiquidity(uint256,uint256,uint256)": "422f1043",
    "allowance(address,address)": "dd62ed3e",
    "approve(address,uint256)": "095ea7b3",
    "balanceOf(address)": "70a08231",
    "decimals()": "313ce567",
    "decreaseAllowance(address,uint256)": "a457c2d7",
    "increaseAllowance(address,uint256)": "39509351",
    "name()": "06fdde03",
    "removeLiquidity(uint256,uint256,uint256)": "857620e1",
    "swap(uint256,uint256,uint256)": "9d9892cd",
    "symbol()": "95d89b41",
    "totalSupply()": "18160ddd",
    "transfer(address,uint256)": "a9059cbb",
    "transferFrom(address,address,uint256)": "23b872dd"
  },
  "id": 5
}